:020000040800F2
:10000000980700209101000831210008C919000853
:100010002D2100088F04000855250008000000006D
:100020000000000000000000000000006121000846
:100030009304000800000000352100086321000837
:10004000AB010008AB010008AB010008AB010008E0
:10005000AB010008AB010008AB010008AB010008D0
:10006000E9040008AB010008AB010008AB0100087F
:10007000AB010008AB010008AB010008AB010008B0
:10008000AB010008AB010008AB010008AB010008A0
:10009000AB010008AB010008AB010008F304000845
:1000A000AB010008AB010008AB010008AB01000880
:1000B000AB010008AB010008AB010008AB01000870
:1000C000AB010008AB010008AB010008AB01000860
:1000D000AB010008AB010008AB010008AB01000850
:1000E000AB010008AB010008AB01000800F002F80A
:1000F00000F03FF80AA090E8000C82448344AAF183
:100100000107DA4501D100F034F8AFF2090EBAE880
:100110000F0013F0010F18BFFB1A43F0010318473B
:10012000B82E0000D82E0000103A24BF78C878C13D
:10013000FAD8520724BF30C830C144BF04680C60ED
:10014000704700000023002400250026103A28BF35
:1001500078C1FBD8520728BF30C148BF0B60704739
:10016000642900F07D80002070471FB51FBD10B5C9
:1001700010BD00F052F91146FFF7F7FF02F050FAF8
:1001800000F070F903B4FFF7F2FF03BC00F078F958
:100190000948804709480047FEE7FEE7FEE7FEE71B
:1001A000FEE7FEE7FEE7FEE7FEE7FEE70448054957
:1001B000054A064B70470000CD210008ED000008FD
:1001C0009801002098070020980300209803002041
:1001D0000FB41CB5074B06AA7B44694600900598EE
:1001E00000F003F90020694600F012F91CBC5DF82C
:1001F00014FB0000350200002DE9F0410E460446D4
:10020000002020622046E168884730B3252805D0C9
:10021000D4E901219047206A401CF2E7E1682046BA
:1002200000278847050018D0A5F14100192802D8F9
:1002300020354FF400673246294620462760FFF7F5
:100240008FFF40B1012804D0F61D26F007060836BE
:10025000D8E7361DD6E72846DAE7206ABDE8F08100
:100260002DE9F0410646002410687529314616A58F
:1002700010D0AFF30080002802DA404213A507E057
:1002800031688A0701D512A502E0490704D511A5F6
:10029000012401E0AFF3008000210A2206F12407C7
:1002A00009E0B0FBF2FCB0FBF2F302FB1C003030C3
:1002B00078541846491C0028F3D123462A46304674
:1002C000BDE8F04100F032B8000000002D00000051
:1002D0002B000000200000004FF0000200B5134684
:1002E00094469646203922BFA0E80C50A0E80C5056
:1002F000B1F12001BFF4F7AF090728BFA0E80C5007
:1003000048BF0CC05DF804EB890028BF40F8042BFF
:1003100008BF704748BF20F8022B11F0804F18BF6C
:1003200000F8012B70477047704770472DE9F04780
:100330000D4699469246044600F124080168880655
:1003400004D5E06921F01001216000E00120A842FD
:1003500001DD471B00E00027A1697A1902EB0900C3
:10036000081AA0612078C00602D42046AFF30080AE
:10037000002608E0D4E901211AF806009047206A17
:10038000401C761C20624E45F4DB2078C0060AD55E
:100390002046AFF3008006E0D4E9012130209047E9
:1003A000206A401C2062381EA7F10107F4DC07E038
:1003B000D4E9012118F805009047206A401C20620A
:1003C000281EA5F10105F3DC2046AFF3008020785C
:1003D000000602D50220BDE8F0870120FBE70000FF
:1003E00001694A1C02610878704700B58FB0CDE9F9
:1003F00001310021059105497944CDE903101146E9
:100400006846FFF7F9FE0FB000BD0000E5FFFFFFF3
:100410000A6802F8010B0A607047754600F02CF874
:10042000AE4605006946534620F00700854618B0E1
:1004300020B5FFF7BBFEBDE820404FF000064FF0AF
:1004400000074FF000084FF0000B21F00701AC4609
:10045000ACE8C009ACE8C009ACE8C009ACE8C00928
:100460008D46704710B50446AFF300802046BDE8C6
:100470001040FFF787BE000000487047340100209D
:1004800001491820ABBEFEE726000200704700BFFE
:10049000FEE7704710B51248007870B100210120C6
:1004A00002F0FCF840F6AC5000F02CF8B42101202A
:1004B00002F0F4F800200A4908700A48007870B188
:1004C0000021022002F0EAF840F6AC5000F01AF8E1
:1004D000B421022002F0E2F800200249087010BDA9
:1004E000180000201900002010B5042000F044F886
:1004F00010BD10B5402000F03FF810BD72B600BF2F
:10050000FEE7000070B5044600F0DCF9064625461B
:10051000681C10B104480078054400BF00F0D2F90F
:10052000801BA842FAD370BD2800002010B50446F5
:1005300000F0C8F90C490968401AC82800D210BD5B
:1005400000F0C0F908490860042C06D1074800688B
:10055000002802DD012006490870402C02D101204C
:100560000449087000BFEAE71C00002004000020D6
:10057000180000201900002010B504460448006847
:10058000204020B1024804602046FFF7CFFF10BD95
:10059000140401402DE9F8470346002294466EE119
:1005A0004FF0010808FA02F4D1F8008008EA0400CC
:1005B000A0427DD1DFF8DCA2D1F80480A8EB0A09C3
:1005C000D0453AD014DCB8F1030F50D009DCB8F1B3
:1005D000000F31D0B8F1010F1CD0B8F1020F49D192
:1005E00020E0B8F1110F18D0B8F1120F42D11EE07F
:1005F000B9F5881F25D006DCB9F5803F20D0B9F5C4
:10060000801F37D11AE0B9F5001F18D0B9F5041FC3
:1006100030D117E0D1F80CC02DE0D1F80C8008F1F2
:10062000040C28E0D1F80C8008F1080C23E0D1F884
:100630000C8008F10C0C1EE000BF00BF00BF00BF23
:1006400000BF00BFD1F80880B8F1000F02D14FF011
:10065000040C0BE0D1F80880B8F1010F03D14FF082
:10066000080C1C6102E04FF0080C5C6103E04FF0E5
:10067000000C00E000BF00BFFF2801D8984601E051
:1006800003F104084646FF2802D84FEA820803E037
:10069000A2F108084FEA88084746D6F800804FF0D4
:1006A0000F0909FA07F928EA09080CFA07F900E026
:1006B00088E048EA0908C6F80080D1F8048008F00C
:1006C0008058B8F1805F7DD100BFDFF8CC81D8F8C9
:1006D000188048F00108DFF8C091C9F81880C846B2
:1006E000D8F8188008F00108CDF8008000BF00BFDE
:1006F0004FEAB9384FEA920958F829504FEA827800
:100700004FEA18794FF00F0808FA09F825EA0805AA
:10071000DFF88881434502D14FF0000816E0DFF88A
:100720008081434502D14FF001080FE0DFF874816A
:10073000434502D14FF0020808E0DFF86C814345E1
:1007400002D14FF0030801E04FF004084FEA82792C
:100750004FEA197908FA09F848EA0505DFF84C81EB
:100760004FEA920948F82950D1F8048008F480181B
:10077000B8F5801F0AD1DFF83881D8F8008048EA40
:100780000008DFF82C91C9F8008009E0DFF820812B
:10079000D8F8008028EA0008DFF81491C9F8008032
:1007A000D1F8048008F40018B8F5001F10D1DFF864
:1007B000008108F10408D8F8008048EA0008DFF852
:1007C000F09000E05AE009F10409C9F800800DE05A
:1007D000DFF8DC8008F10408D8F8008028EA000877
:1007E000DFF8CC9009F10409C9F80080D1F8048041
:1007F00008F40038B8F5003F0ED1DFF8B480A8F156
:100800000408D8F8008048EA0008DFF8A490A9F1AD
:100810000409C9F800800DE0DFF89480A8F104080D
:10082000D8F8008028EA0008DFF88490A9F10409CC
:10083000C9F80080D1F8048008F48038B8F5803F0A
:100840000ED1DFF86C80A8F10808D8F8008048EADB
:100850000008DFF85C90A9F10809C9F800800DE0F4
:10086000DFF84C80A8F10808D8F8008028EA0008D2
:10087000DFF83C90A9F10809C9F80080521CD1F8B2
:10088000008028FA02F8B8F1000F7FF489AEBDE8C5
:10089000F88700000000111000100240000801401D
:1008A000000C01400010014000140140080001400C
:1008B00008040140024693680B400BB1012000E0A0
:1008C00000207047014800687047000020000020A9
:1008D00070B504460CB9012070BD94F83D0028B9EC
:1008E000002084F83C00204600F092F9242084F88F
:1008F0003D002068006820F0010021680860206841
:10090000006840F40040216808602068006820F416
:1009100000402168086000F053FB05465C496068B0
:10092000884206D85B48854201D2012007E00020BA
:1009300005E05948854201D2012000E0002001284D
:1009400000D1C9E75548B5FBF0F62068406820F0B3
:100950003F003043216848604D496068884201D8B3
:10096000701C07E04FF4967070434FF47A71B0FB3F
:10097000F1F0401C2168096A21F03F010843216819
:10098000086243496068884214D8681E616849005B
:10099000B0FBF1F0401CC0F30B00042801D204208E
:1009A0003DE0681E61684900B0FBF1F0401CC0F3F7
:1009B0000B0034E0A06838B9681E616801EB4101A2
:1009C000B0FBF1F0401C0AE0681E616801EBC10257
:1009D00002EB0111B0FBF1F0401C40F48040C0F389
:1009E0000B0008B901201AE0A06848B9681E6168C8
:1009F00001EB4101B0FBF1F0401CC0F30B000CE037
:100A0000681E616801EBC10202EB0111B0FBF1F05D
:100A1000401CC0F30B0040F4804040F400402168CB
:100A2000C9694CF6FF72914308432168C861D4E953
:100A3000070108432168096821F0C00108432168C3
:100A40000860D4E9031008432168896848F2FF323E
:100A50009143084321688860D4E90501084321686F
:100A6000C96821F0FF0108432168C8602068006858
:100A700040F001002168086000202064202084F8F4
:100A80003D000020206384F83E0000BF24E7000002
:100A9000A086010080841E0000093D0040420F0036
:100AA0002DE9F8430446894616461F46DDF82080A6
:100AB000FFF708FF054694F83D0020287ED1192352
:100AC000012251492046009501F0BFF810B10220E3
:100AD000BDE8F88300BF94F83C00012801D1022052
:100AE000F6E7012084F83C0000BF2068006800F0B1
:100AF000010028B92068006840F001002168086002
:100B00002068006820F4006021680860212084F8D3
:100B10003D00102084F83E00002020646662678556
:100B2000608D20853948E0622B4642464946204682
:100B300000F0F8FF08B10120CAE700BF00200090D4
:100B400020684069009020688069009000BF00BF65
:100B500044E02A464146204601F053F950B1206C4A
:100B6000042805D12068006840F4007021680860FE
:100B70000120ADE7606A007821680861606A401C66
:100B80006062608D401E6085208D401E208520683B
:100B90004069C0F3800070B1208D60B1606A007858
:100BA00021680861606A401C6062608D401E60853B
:100BB000208D401E20852A46414600E022E0204646
:100BC00001F010F850B1206C042805D120680068AD
:100BD00040F4007021680860012079E7208D00282A
:100BE000B7D12068006840F40070216808602020B8
:100BF00084F83D00002084F83E0000BF84F83C00EB
:100C000000BF65E7022063E7020010000000FFFF5D
:100C100010B586B004460020029003900490059021
:100C200015492068884225D100BF1448806940F0EA
:100C30000800124988610846806900F008000190A8
:100C400000BF00BFC0200290122003900320059037
:100C500002A90B48FFF79EFC00BF0848C06940F49A
:100C600000100649C8610846C06900F400100190F0
:100C700000BF00BF06B010BD00540040001002408D
:100C8000000C014003480068034909780844014901
:100C900008607047200000202800002010B5084898
:100CA000006840F0100006490860032000F0A8F832
:100CB000002000F007F800F02BF8002010BD000025
:100CC0000020024070B504460E4800784FF47A7157
:100CD000B1FBF0F00C490968B1FBF0F5284600F0D3
:100CE000E9FB08B1012070BD102C07D2002221467B
:100CF000501E00F047F80548046001E00120F2E7CB
:100D00000020F0E7280000202C0000202400002014
:100D100008B500BF1148806940F001000F498861A3
:100D20000846806900F00100009000BF00BF00BFCE
:100D30000846C06940F08050C8610846C06900F0AC
:100D40008050009000BF00BF00BF0549486820F0F8
:100D5000E06040F00070486000BF08BD0010024035
:100D60000000014001460846002809DB00F01F038F
:100D700001229A4043099B0003F1E023C3F80021BC
:100D800000BF70472DE9F05F80460D4616460027EC
:100D900001F0E2FB074639462A46334601F00700D8
:100DA000C0F1070ABAF1040F02D94FF0040A01E0BA
:100DB000C0F1070AD14600F1040ABAF1070F02D2C6
:100DC0004FF0000A01E0A0F1030AD4464FF0010AF7
:100DD0000AFA09FAAAF1010A0AEA020A0AFA0CFA5C
:100DE0004FF0010B0BFA0CFBABF1010B0BEA030B01
:100DF0004AEA0B042146404601F0B6FBBDE8F09FED
:100E000000BF00F00702064B19684FF6FF031940B8
:100E1000044B0B4343EA0221014B196000BF7047AA
:100E20000CED00E00000FA0570B504460D460CB963
:100E3000012070BD5A48006800F00700A8420ED299
:100E40005748006820F007002843554908600846C5
:100E5000006800F00700A84201D00120E9E72078EF
:100E600000F0020002281DD1207800F004000428C0
:100E700005D14C48406840F4E0604A494860207819
:100E800000F00800082805D14648406840F460504A
:100E9000444948604348406820F0F000A168084396
:100EA00040494860207800F0010078B3606801286C
:100EB00006D13C48006800F4003090B90120B8E742
:100EC0006068022806D13748006800F0007040B919
:100ED0000120AEE73348006800F0020008B90120A5
:100EE000A7E73048406820F00300616808432D49B7
:100EF0004860FFF7E7FC064609E0FFF7E3FC801BCC
:100F000041F28831884202D9032092E707E0254860
:100F1000406800F00C006168B0EB810FEDD1204813
:100F2000006800F00700A8420ED91D48006820F0B4
:100F3000070028431A4908600846006800F00700C7
:100F4000A84201D0012074E7207800F004000428B2
:100F500007D11448406820F4E060E1680843114973
:100F60004860207800F00800082808D10D48406843
:100F700020F46050216940EAC1000A49486000F04D
:100F80002FF808494968C1F30311074A515CC8406A
:100F90000649086006480068FFF794FE002048E70D
:100FA0000020024000100240BE2F00082C0000204C
:100FB0002400002001480068704700002C00002039
:100FC00000B5FFF7F7FF04494968C1F30221034A5E
:100FD000515CC84000BD000000100240CE2F000848
:100FE00070B500210022002400230020134D696801
:100FF00001F00C05F5B1042D02D0082D19D101E046
:101000000F4819E00F4DC1F38346AB5D01F4803505
:1010100055B10A4D6D68C5F340450B4E725D084DE4
:101020005D43B5FBF2F402E0084D03FB05F42046F6
:1010300002E000BF024800BF00BF70BD00100240C8
:1010400000127A00AC2F0008BC2F000800093D00F8
:10105000F8B504460CB90120F8BD207800F0010075
:10106000002878D0F848406800F00C0004280CD024
:10107000F548406800F00C00082811D1F24840689B
:1010800000F48030B0F5803F0AD1EF48006800F4EA
:10109000003000285FD0606800285CD10120DBE7C9
:1010A00000BF6068B0F5803F06D1E748006840F4B3
:1010B0008030E549086028E0606858B9E248006877
:1010C00020F48030E04908600846006820F4802061
:1010D00008601AE06068B0F5A02F0BD1DA4800680C
:1010E00040F48020D84908600846006840F4803009
:1010F00008600AE0D448006820F48030D2490860D3
:101100000846006820F48020086000BF606888B14D
:10111000FFF7D8FB054606E0FFF7D4FB401B642829
:1011200001D9032098E7C848006800F4003000287F
:10113000F2D010E0FFF7C6FB054606E0FFF7C2FB62
:10114000401B642801D9032086E7BF48006800F4EB
:1011500000300028F2D1207800F00200022857D198
:10116000B948406800F00C0050B1B748406800F042
:101170000C00082818D1B448406800F4803098B9B1
:10118000B148006800F0020020B12069012801D0B8
:10119000012061E7AC48006820F0F800616940EA8E
:1011A000C100A949086033E02069E8B10120A749DE
:1011B0000860FFF787FB054606E0FFF783FB401B4F
:1011C000022801D9032047E79F48006800F0020089
:1011D0000028F2D09C48006820F0F800616940EADD
:1011E000C1009949086013E0002098490860FFF7A2
:1011F00069FB054606E0FFF765FB401B022801D9A5
:10120000032029E79048006800F002000028F2D18E
:10121000207800F0080008282DD1A069B8B101207D
:101220008B490860FFF74EFB054606E0FFF74AFBD7
:10123000401B022801D903200EE78348406A00F0D2
:1012400002000028F2D0012000F076FF13E0002019
:101250007F490860FFF736FB054606E0FFF732FBE3
:10126000401B022801D90320F6E67748406A00F0C7
:1012700002000028F2D1207800F00400042873D185
:1012800000277148C06900F0805070B900BF6E48F7
:10129000C06940F080506C49C8610846C06900F0E0
:1012A0008050009000BF00BF01276A48006800F42A
:1012B0008070B0B96748006840F480706549086084
:1012C000FFF700FB054606E0FFF7FCFA401B642829
:1012D00001D90320C0E65F48006800F48070002850
:1012E000F2D000BFE068012806D15748006A40F0FC
:1012F00001005549086227E0E06858B95248006A81
:1013000020F00100504908620846006A20F00400FD
:10131000086219E0E06805280BD14B48006A40F0EC
:101320000400494908620846006A40F0010008626A
:101330000AE04548006A20F0010043490862084677
:10134000006A20F00400086200BFE068A0B1FFF767
:10135000B9FA054609E0FFF7B5FA401B41F28831BA
:10136000884202D9032077E622E03748006A00F07D
:1013700002000028EFD012E0FFF7A4FA054608E0CB
:10138000FFF7A0FA401B41F28831884201D90320BF
:1013900062E62D48006A00F002000028F0D1012F1B
:1013A00005D12948C06920F080502749C86100BF95
:1013B000E069C8B32448406800F00C00082860D0F9
:1013C000E069022848D1002020490866FFF77AFA30
:1013D000054606E0FFF776FA401B022801D90320F4
:1013E0003AE61948006800F000700028F2D1206A3F
:1013F000B0F5803F07D11448406820F40030A16860
:10140000084311494860D4E9080108430E49496876
:1014100021F4741108430C49486001200B49086607
:10142000FFF750FA054607E03DE0FFF74BFA401B97
:10143000022801D903200FE60348006800F000707D
:101440000028F2D02FE000000010024000004242CD
:101450008004424200700040002014490866FFF7F3
:1014600031FA054606E0FFF72DFA401B022801D9A4
:101470000320F1E50E48006800F000700028F2D16A
:1014800011E0E069012800D1E6E50948466806F464
:101490008031206A814204D106F47011606A814271
:1014A00001D00120D8E50020D6E50000000042422E
:1014B0000010024070B504462546681EB0F1807FDA
:1014C00001D301200FE0681E4FF0E02148610F2199
:1014D0004FF0FF3001F048F800204FF0E021886124
:1014E00007200861002070BD30B502460B4600BFE2
:1014F00092F83C00012801D1022030BD012082F881
:101500003C0000BF022082F83D001068446810686B
:10151000816824F070041868044310684460104D1A
:101520001068A8420BD01068B0F1804F07D00D4D65
:101530001068A84203D00C4D1068A84205D121F0D4
:1015400080015868014310688160012082F83D00E5
:1015500000BF002082F83C0000BF00BFCDE70000C4
:10156000002C0140000400400008004010B5044673
:101570000CB9012010BD94F83D0028B9002084F872
:101580003C00204600F026F8022084F83D00211D92
:10159000206800F01DFE012084F8460000BF84F89A
:1015A0003E0001213F2001554020015541200155B9
:1015B00000BF00BF012084F84200432001554420B1
:1015C00001554520015500BF012084F83D00002051
:1015D000D0E7000008B5124A016891420DD100BF62
:1015E0001049896941F400610E4A91611146896987
:1015F00001F40061009100BF11E00168B1F1804F7A
:101600000DD100BF0749C96941F00101054AD16107
:101610001146C96901F00101009100BF00BF08BD7A
:10162000002C0140001002402DE9F04104460D4617
:10163000002700BF94F83C00012802D10220BDE839
:10164000F081012084F83C0000BF022084F83D00B6
:101650002068866826F0770626F47F462068866034
:101660002868502833D00CDC202850D004DC002817
:101670004BD0102851D149E0302849D040284CD1D6
:1016800039E060282DD0702807D0B0F5805F03D0F6
:10169000B0F5005F41D10DE041E0D5E902136A6881
:1016A000206800F0E8FD2068866846F0770620682C
:1016B000866034E0D5E902136A68206800F0DBFD3B
:1016C0002068806840F480402168886027E0EA68EC
:1016D0006968206800F0A0FE5021206800F0D6FD67
:1016E0001DE0EA686968206800F0A9FE60212068B2
:1016F00000F0CCFD13E0EA686968206800F08CFE19
:101700004021206800F0C2FD09E000BF00BF00BF1B
:101710002968206800F0BAFD01E0012700BF00BF82
:10172000012084F83D0000BF002084F83C0000BF89
:10173000384684E710B586B0044600200290039036
:10174000049005902068B0F1804F16D100BF0C487E
:10175000806940F004000A4988610846806900F009
:101760000400019000BF00BF0320029002200390FC
:10177000059002A90348FEF70DFF06B010BD00005A
:1017800000100240000801402DE9F04104460D46DA
:101790001646002700BF94F83C00012802D1022021
:1017A000BDE8F081012084F83C0000BF36B1042E72
:1017B0001BD0082E31D00C2E5ED145E02946206882
:1017C00000F06EFD2068806940F0080021688861A3
:1017D0002068806920F004002168886120688069A1
:1017E000296908432168886148E02946206800F09B
:1017F00087FD2068806940F4006021688861206866
:10180000806920F480602168886120688069296986
:1018100040EA01202168886130E02946206800F014
:10182000A3FD2068C06940F008002168C8612068F5
:10183000C06920F004002168C8612068C069296976
:1018400008432168C86119E02946206800F0C0FDFE
:101850002068C06940F400602168C8612068C069E0
:1018600020F480602168C8612068C069296940EA65
:1018700001202168C86101E0012700BF00BF00BF4F
:10188000002084F83C0000BF384689E710B50446C4
:101890000CB9012010BD94F83D0028B9002084F84F
:1018A0003C00204600F025F8022084F83D00211D70
:1018B000206800F08DFC012084F8460000BF84F809
:1018C0003E0001213F200155402001554120015596
:1018D00000BF00BF012084F842004320015544208E
:1018E00001554520015500BF012084F83D0000202E
:1018F000D0E7704770B504460D4615B994F83E0020
:101900000BE0042D02D13F20005D06E0082D02D13E
:101910004020005D01E04120005D012801D0012050
:1019200070BD1DB9022084F83E000EE0042D03D1E5
:1019300002213F20015508E0082D03D1022140205B
:10194000015502E00221412001550122294620686B
:1019500000F080FC19492068884201D1012000E094
:10196000002028B12068406C40F4004021684864A1
:101970001249206888420BD02068B0F1804F07D010
:101980000F492068884203D00E49206888420CD154
:101990002068806800F00706062E0CD020680068DA
:1019A00040F001002168086005E02068006840F010
:1019B0000100216808600020B2E70000002C01400F
:1019C000000400400008004000BFFEE710B500F032
:1019D000A9FA0021084600F047FA33A000F053FAB4
:1019E0003249097809B132A100E032A1084600F07D
:1019F0004AFA0521002000F037FA2FA000F043FA40
:101A00002A49497809B12AA100E02AA1084600F034
:101A10003AFA0A21002000F027FA28A000F033FA51
:101A20002249897809B122A100E022A1084600F0EC
:101A30002AFA0021012000F017FA21A000F023FA71
:101A40001A49C97809B11AA100E01AA1084600F0A4
:101A50001AFA0521012000F007FA1AA000F013FA83
:101A60001249097909B112A100E012A1084600F05B
:101A70000AFA0A21012000F0F7F91348006800284B
:101A800009DD124812A102681348FEF7A1FB1248B3
:101A900000F0F9F906E00A21012000F0E5F90FA0B5
:101AA00000F0F1F910BD000053313A000E000020A3
:101AB000460000004500000053323A0053333A001C
:101AC00053343A0053353A00040000200800002047
:101AD000536F58653A2564001401002046756C6CFC
:101AE00021000000014608684069C0F38020B0B1C1
:101AF0006FF480600A68506100200863202081F83C
:101B00003D00002081F83E00086C40F004000864AD
:101B100000BF002081F83C0000BF0120704700207A
:101B2000FCE700002DE9F84304460D4617469846A9
:101B3000E66A082E04D0012E02D016F5803F06D1A9
:101B40002068006840F480702168086008E0206B1D
:101B5000122805D12068006840F480702168086070
:101B60003B4600224FF001112046CDF8008000F0E6
:101B70006CF860B12068006800F48070B0F5807F78
:101B800002D14FF4007020640320BDE8F88320697F
:101B9000B0F5804F04D105F0FE002168086112E025
:101BA00005F44070F02141EAE010216808614346E5
:101BB0003A460B49204600F0A7F808B10120E4E7B7
:101BC000E8B22168086143463A460549891F204624
:101BD00000F09AF808B10120D7E70020D5E700000F
:101BE0000800010070B504460D46164625E0204663
:101BF000FFF778FF08B1012070BD681CE8B1FEF75F
:101C000061FE801BA84200D8BDB920684069C0F3BE
:101C1000800090B900202063202084F83D0000203F
:101C200084F83E00206C40F02000206400BF0020BB
:101C300084F83C0000BF0120DEE720684069C0F363
:101C400080000028D3D00020D6E72DE9F0410446DB
:101C50000D4617461E46DDF8188038E0701CA8B304
:101C6000FEF730FEA0EB0800B04200D876BBC5F30B
:101C7000074001280AD120684069A9B20840A9B2EA
:101C8000884201D101200BE0002009E02068806932
:101C9000A9B20840A9B2884201D1012000E0002089
:101CA000B84214D100202063202084F83D00002099
:101CB00084F83E00206C40F02000206400BF00202B
:101CC00084F83C0000BF0120BDE8F081FFE7C5F3C8
:101CD000074001280AD120684069A9B20840A9B28A
:101CE000884201D101200BE0002009E020688069D2
:101CF000A9B20840A9B2884201D1012000E0002029
:101D0000B842ABD00020DFE72DE9F04104460D4694
:101D100016461F4658E020684069C0F38020E8B1AD
:101D20002068006840F40070216808606FF48060EB
:101D30002168486100202063202084F83D000020B5
:101D400084F83E00206C40F00400206400BF0020B6
:101D500084F83C0000BF0120BDE8F081701C90B306
:101D6000FEF7B0FDC01BB04200D866BBC5F307400C
:101D700001280AD120684069A9B20840A9B2884266
:101D800001D101200BE0002009E020688069A9B2A0
:101D90000840A9B2884201D1012000E0002090B99A
:101DA00000202063202084F83D00002084F83E00BD
:101DB000206C40F02000206400BF002084F83C002C
:101DC00000BF0120C8E7FFE7C5F3074001280AD19B
:101DD00020684069A9B20840A9B2884201D1012017
:101DE0000BE0002009E020688069A9B20840A9B290
:101DF000884201D1012000E0002000288BD0002083
:101E0000AAE770B504460D46164625E02046FFF7C2
:101E100069FE08B1012070BD681CE8B1FEF752FDF3
:101E2000801BA84200D8BDB920684069C0F3C0102B
:101E300090B900202063202084F83D00002084F821
:101E40003E00206C40F02000206400BF002084F899
:101E50003C0000BF0120DEE720684069C0F3C010ED
:101E60000028D3D00020D6E770B506460C461EB930
:101E700004F18000C5B202E004F1C000C5B22846FA
:101E800000F02EF870BD10B5044603E014F8010B05
:101E900000F004F820780028F8D110BD7CB5044685
:101EA00004F0F005F02000EA041645F00D008DF86E
:101EB000040045F009008DF8050046F00D008DF88E
:101EC000060046F009008DF807006420042301AAEB
:101ED0004E2100900148FEF7E3FD7CBD300000205C
:101EE0007CB5044604F0F005F02000EA041645F045
:101EF0000C008DF8040045F008008DF8050046F050
:101F00000C008DF8060046F008008DF807006420EC
:101F1000042301AA4E2100900148FEF7C1FD7CBDBB
:101F20003000002010B50120FFF7DAFF0220FEF795
:101F3000E9FA10BD00B585B0002001900290039031
:101F4000049000BF1F48806940F004001D4988616B
:101F50000846806900F00400009000BF00BF00BF89
:101F60000846806940F0080088610846806900F0F2
:101F70000800009000BF00BF44200190124802906A
:101F80000020039001A91148FEF704FB49F6204008
:101F9000019000200290039001A90C48FEF7FAFA84
:101FA000002211460820FEF7EDFE0820FEF7DAFEBB
:101FB000002211461720FEF7E5FE1720FEF7D2FE9D
:101FC00005B000BD001002400000111000080140E3
:101FD00010B50B480B4908600B48486000210948C0
:101FE0008160C1604FF480410161002141618161E4
:101FF000C1610162FEF76CFC08B1FEF77FFA10BD0B
:102000000054004030000020A086010000B587B0D9
:1020100000200390049005900690019002901548CE
:10202000154908603F20486000211348816044F64C
:102030001F61C1600021016141618161FFF796FA72
:1020400008B1FEF75BFA4FF48050039003A90A48E9
:10205000FFF7EAFA08B1FEF751FA0020019002906A
:1020600001A90548FFF740FA08B1FEF747FA07B0A3
:1020700000BD0000002C01408400002000B58DB0A0
:10208000002009900A900B900C90079008901C215A
:102090006846FEF721F94FF08040234908603F2051
:1020A000486000212048816044F61F61C160002122
:1020B00001618161FFF75AFA08B1FEF71FFA4FF488
:1020C0008050099009A91848FFF7AEFA08B1FEF749
:1020D00015FA1548FFF7DAFB08B1FEF70FFA0020F2
:1020E0000790089007A91048FFF7FEF908B1FEF71E
:1020F00005FA6020009000200190029004900022D8
:1021000069460948FFF740FB08B1FEF7F7F90422DA
:1021100069460548FFF738FB08B1FEF7EFF90248BA
:10212000FFF708FB0DB000BDCC00002000BFFEE7AC
:1021300000BFFEE77047000008B508490968C908F4
:102140004FF47A72B1FBF2F14143009100BF00BF3E
:1021500000994A1E00920029F9D108BD2C000020E8
:10216000704710B5FEF78EFD10BD00B58FB0282169
:1021700005A8FEF7B1F814216846FEF7ADF8022075
:1021800005900120099010200A9002200C90002157
:102190000D914FF460110E9105A8FEF759FF08B19B
:1021A000FEF7ACF90F200090022001900020029071
:1021B0004FF4806003900020049002216846FEF7EF
:1021C00033FE08B1FEF79AF90FB000BD704700006A
:1021D00010B502681C4B984208D0B0F1804F05D072
:1021E0001A4B984202D01A4B984203D122F0700247
:1021F0004B681A43144B984208D0B0F1804F05D079
:10220000124B984202D0124B984203D122F44072F2
:10221000CB681A4322F080034C6943EA040202604F
:102220008B68C3620B688362074B984201D10B69CC
:10223000036301234361036903F001031BB10369D5
:1022400023F00103036110BD002C01400004004095
:102250000008004030B501F01F05012404FA05F321
:10226000046A9C430462046A01F01F0502FA05F542
:102270002C43046230BD30B50C46816821F47F41A7
:1022800042EA032525432943816030BD0A4681681F
:1022900021F0700142F0070319438160704700008C
:1022A00030B5026A056A25F0010505624368846954
:1022B00024F0700424F003040D682C4322F0020281
:1022C0008D682A430D4DA84206D100BF22F00802B6
:1022D000CD682A4322F00402084DA84207D123F416
:1022E000807323F400734D692B438D692B43436046
:1022F00084614D684563026230BD0000002C0140DE
:1023000030B5026A056A25F01005056243688469E4
:1023100024F4E04424F440740D6844EA052422F0D7
:1023200020028D6842EA05120E4DA84207D100BF77
:1023300022F08002CD6842EA051222F04002094DE7
:10234000A84209D123F4806323F400634D6943EA72
:1023500085038D6943EA8503436084614D68856325
:10236000026230BD002C014030B5026A056A25F4D6
:10237000807505624368C46924F0700424F0030486
:102380000D682C4322F400728D6842EA05220F4D3D
:10239000A84207D100BF22F40062CD6842EA0522BC
:1023A00022F48062094DA84209D123F4805323F41A
:1023B00000534D6943EA05138D6943EA05134360F1
:1023C000C4614D68C563026230BD0000002C01404D
:1023D00030B5036A056A25F4805505624468C26910
:1023E00022F4E04222F440720D6842EA052223F40E
:1023F00000538D6843EA0533064DA84204D124F406
:1024000080444D6944EA85144460C2614D680564A6
:10241000036230BD002C014030B50B461446026A01
:10242000056A25F001050562816921F0F00141EAA4
:10243000041122F00A021A438161026230BD30B5F4
:102440000B461446026A056A25F01005056281698B
:1024500021F4704141EA043122F0A00242EA031261
:102460008161026230BD00001CB500203549086062
:102470004FF480613448FEF71DFA08B9012000E0EE
:1024800000208DF800004FF400612F48FEF712FA8B
:1024900008B9012000E000208DF801004FF48051C0
:1024A0002948FEF707FA08B9012000E000208DF85E
:1024B00002004FF400412448FEF7FCF908B901205E
:1024C00000E000208DF8030020211F48FEF7F2F9FC
:1024D00008B9012000E000208DF8040000200CE085
:1024E0001DF80010194A11541DF8001021B11549AA
:1024F0000968491C134A1160401C0528F0DB11488B
:102500000068C0F10500124908600E480068002804
:1025100002DA00200B4908600A480068052802DD3D
:102520000520084908600A480068002802DA0020EF
:102530000749086006480068052802DD05200449AF
:1025400008601CBD08000020000801400E000020AB
:102550000400002000BFFEE702480068C0F302202C
:10256000704700000CED00E010B5002804DB0A07FE
:10257000130E054A135406E00A07140E034A00F02E
:102580000F031B1FD45410BD00E400E018ED00E061
:102590002DE9F05F8246504600F0CAFA80460022DC
:1025A0000A4B00F06DF906460022094B00F0C0F816
:1025B000044600F08BF883460649584600F02AFC92
:1025C000044600F007FCBDE8F09F00000080664074
:1025D0000000F03F00007A4410B50120FFF780FCB6
:1025E0003220FDF78FFF0620FFF77AFC3220FDF73F
:1025F00089FF0C20FFF774FC3220FDF783FF0220D7
:10260000FFF76EFC3220FDF77DFF8020FFF768FCAE
:102610003220FDF777FF0E20FFF762FC10BD0000AF
:10262000FEF73CFBFFF7A1FDFFF784FCFFF7D0FCB2
:10263000FFF7ECFCFFF722FD00211548FFF75AF9E0
:1026400004211348FFF756F9B421012000F026F8C1
:10265000B421022000F022F8FFF7BEFF1420FDF79E
:1026600051FFFFF75FFC1420FDF74CFF09A0FFF7B7
:102670000AFC4FF4FA60FDF745FF08E0FFF7F4FEAF
:10268000FFF7A4F9FDF706FF3220FDF73BFFF5E762
:10269000CC00002048656C6C6F00000070B50546EA
:1026A0000E46B42E00DDB4263046FFF771FF044617
:1026B000012D03D104480068446304E0022D02D1D7
:1026C00001480068846370BDCC00002021F0004206
:1026D000A2F16052B2F5801F01F0004328BFD2F191
:1026E0007F6C0BD95FEA001C43EAC20242EB5070D8
:1026F00018BF704728BF20F001007047B2F5801F57
:10270000BCBF184670474FEA410C1CF5001F02D2AF
:10271000084600F046BC70B500F01DFA00000089C4
:10272000FFF7F6BF4FF00040A0F5800070470000B3
:1027300010B591EA030F48BF83F0004300F16882AF
:10274000841A71EB030C05D2121943EB0C03001B26
:1027500061EB0C01DFF824E14FEA1154A4EB135CA8
:102760001EEA430F18BF9EEA445F73D023EA0E03AC
:10277000DCF1200E21EA045143F4801332D322FA13
:102780000CFE10EB0E0023FA0CFE41EB0E01CCF117
:10279000200E03FA0EFE10EB0E0051F10001B1F510
:1027A000801FCCF1200E32D201EB045112FA0EF24E
:1027B000BDE8104058BF7047401C38BF5FEA420276
:1027C00018BF7047002814BF20F0010041F100013C
:1027D0004FEA410313F5001F38BF7047A1F1C04114
:1027E00000F007BA012A43EB0302ACF1200CDCF144
:1027F0001F0E32BF4FF0000E23FA0CF310EB030054
:1028000041EB0451B4EB115FD0D0A1EB045101F5C1
:10281000801149085FEA300001EB04510ED350F1FA
:10282000000038BF12FA0EFE08D1BDE81040C9E71B
:10283000401C38BF5FEA4202CAD1C3E7BDE810407E
:102840004FEA410313F5001F38BF7047A1F1C041A3
:1028500000F0CFB99EEA445F08D011EA5E0FBDE8F0
:10286000104004BF01F0004100207047BDE8104057
:1028700070B500F070F900BF64FBBE3E0000E0FFE1
:102880002DE9C04130B4DFF8A0C23CEA111418BFF2
:102890003CEA131400F0EC8081EA03051CEA1114F1
:1028A00044EAD57418BF1CEA131500F0C780A4EBE6
:1028B00005044FF0004545EAC12145EAC32341EA3A
:1028C000505143EA525304F17F74994204F50034A5
:1028D0004FEAC0204FEAC22208BF904200F09C801D
:1028E0004FEA13650FF24016765D4FEA134506FB7B
:1028F00005F7C7F1807706FB07F74FEAD737A7FB45
:1029000003687642C8F58038A7FB06CE38BFA8F129
:10291000010807FB08E64FF0000EA6FB028CE6FB61
:1029200003CEDCF1000CCEF1004E38BFAEF1010E4B
:10293000A6FB0C584FF000074FF00005E6FB0E8792
:10294000A1FB08C6A0FB07CE16EB0E0645F100055D
:10295000E1FB076515F1E04E7EBFA4F580345FEA28
:1029600046066D4116F1800745F100054FEA17272D
:102970004FEA066647EA0567A6F1DE46B6F1805FD4
:102980004FEA15251FD9384624F0010C05EBC47118
:10299000BCF1FE6F01EB0C1102D8F0BCBDE8008168
:1029A00024425CBF01F5801E9EEAC47F02D4F0BCC5
:1029B000BDE80081244238D4F0BCA1F1C041BDE89B
:1029C000004100F016B94FEAD22242EA43524FEAE0
:1029D000D323A7FB02864FEAD02040EA415007FBF1
:1029E00003661EEA0E0F4FEAD12105FB026658BFAF
:1029F000A6EB0056B6EB00564FEA520E4EEAC37EE7
:102A000018EB0E0E56EB530EBDD518EB02085E41C7
:102A10007F1C55F10005B6E74FF480154FF0000715
:102A20004FF000064FF00008ADE7F0BC4FF000009B
:102A300001F1C04101F00041BDE8008111EA0C1F25
:102A40000CEA131500D00CE013EA0C1F00F02580EF
:102A50004FF00000F0BC81EA030101F00041BDE845
:102A60000081F0BCBDE8004181EA030100F0C1B87B
:102A7000F0BCBDE8004170B500F06DF8097EFC3E89
:102A800000F007B881EA03014FF0000001F00041B7
:102A9000704781EA030100F0ACB8F0BCBDE800412A
:102AA0004FF0000021497047FFFDFBF9F7F5F4F204
:102AB000F0EEEDEBE9E8E6E4E3E1E0DEDDDBDAD8D9
:102AC000D7D5D4D3D1D0CFCDCCCBCAC8C7C6C5C437
:102AD000C2C1C0BFBEBDBCBBBAB9B8B7B6B5B4B34E
:102AE000B2B1B0AFAEADACABAAA9A8A8A7A6A5A439
:102AF000A3A3A2A1A09F9F9E9D9C9C9B9A999998FD
:102B00009797969595949393929191908F8F8E8E9F
:102B10008D8C8C8B8B8A898988888787868585842C
:102B200084838382828181800000FF070000F87F18
:102B3000B0FA80F310FA03F10AD0C3F11D0303F5D4
:102B400080634FEA41504FEA035202EBD1217047B4
:102B50004FF0000070470EF1020E2EF0030E5EF8EB
:102B6000046B364205D4012A43EB030515F5001F1B
:102B700012D8012841EB010C1CF5001F0CD80ED116
:102B80004FEAD17C15F5001F0CEB4C0C0CF1020C3C
:102B900008BF4CEBD37C04E04FF0080C01E04FEA97
:102BA000D37C0CEB4C0526FA05F606F00706B6F1C9
:102BB000040C06D20EEB860CBDE870404CF0010C04
:102BC0006047DFE80CF0090B02024FF000414FF0C4
:102BD0000000A1F5002170BD19461046012851EBF7
:102BE000010418BFD4F5001484BF002001F0004197
:102BF00070BD0808A0F500114FEA310170470000D0
:102C000010B591EA030F48BF83F000433FF598AD3C
:102C1000841A71EB030C07D212198CF0004C43EBB1
:102C20000C03001B61EB0C01DFF8A4E14FEA115427
:102C3000A4EB135C1EEA430F18BF9EEA445F00F04A
:102C4000B08023EA6E03524221EA0451C3EB6E03C3
:102C500038BF5B1EDCF1200E25D322FA0CFE10EBF0
:102C60000E0043FA0CFE41EB0E01CCF1200E03FAEC
:102C70000EFE10EB0E0051F10001CCF1200E29D414
:102C800012FA0EF201EB0451BDE8104058BF704734
:102C9000401C1CBFB2F1004F704700280CBF491CFC
:102CA00020F00100704712EB020E43EB030218BF45
:102CB0004FF0010E4EEA4202ACF1200CDCF11E0E88
:102CC00054D943FA0CFE10EB0E0051F1FF31CCF158
:102CD0001E0ED5D50EF1010E12FA0EFE404141EB4B
:102CE000010101EB445C5FEA5C5C10D910EBDE7023
:102CF00001EB045138BFBEF1004FBDE8104018BFD2
:102D0000704700280CBF491C20F00100704730D2EA
:102D10004FEAD42C11F5001124F400641BD0B1FA51
:102D200081F20B3AA41AA41ED2F12003914030FA8A
:102D300003F31943904001EBCC71002C01EB0451DB
:102D4000BDE81040A8BF704701F1C0414FF000003E
:102D500001F000417047B0FA80F310FA03F100D19E
:102D600010BDE41A173C4805C90AE4E701EB045119
:102D700010BD491001EB0451BDE810404FEA30008E
:102D800002E04FF0000170474A0008BF0042F8D04F
:102D9000B2F5001F28BF704701F000414FF000005E
:102DA00070479EEA445F07D011EA5E0FBDE810400D
:102DB00004BF002100207047BDE8104070B5FFF748
:102DC000CAFE00BF40DFF63E83F000411046704768
:102DD0000000E0FFC10DD1F19E0206DB4FEA0023A7
:102DE00043F0004323FA02F07047004207D54FEA50
:102DF0004001B1F1FE4F02D24FF00000704710B514
:102E000000F089F849922480002070476FEA200082
:102E1000704700004FF47F0C1CEAD0121EBF1CEA62
:102E2000D11392EA0C0F93EA0C0F00F0478090EA5E
:102E3000010F48BF42F480724FF0004C4CEA002072
:102E40004CEA012102EB0302A0FB0113A2F50002F0
:102E5000002918BF43F001035B0028BF4FEA33038A
:102E600042EB22425FEA132C4CEBC2502EBFBCEB6C
:102E7000436FB2F57C0F70474FEA036CBCF1004F13
:102E800008BF20F00100B2F57C0F38BF70470BD5AA
:102E900082F0FF0212F5803FC8BF704700F1C040CA
:102EA000D8BF00F00040704700F5000C5FEA4C0C02
:102EB00048BF7047B0F1C04000F073B890EA010F0E
:102EC0000CEAD11348BF42F48072624538BF6345B3
:102ED00004D280EA010000F00040704710B500F015
:102EE0001AF800BF8900013E00F007B800F009B8E9
:102EF0005FEA410C5FEA1C6C08D080EA010000F038
:102F000050B85FEA400C5FEA1C6CF6D14FF000400D
:102F1000A0F5800070470EF1020E2EF0030E5EF851
:102F2000044B244204D44FEA4102B2F17F4F11D83E
:102F30004FEA4003B3F17F4F0CD80ED14FEAD07C5B
:102F4000B2F17F4F0CEB4C0C0CF1020C08BF4CEBB8
:102F5000D17C04E04FF0080C01E04FEAD17C0CEB8F
:102F60004C0324FA03F404F00704B4F1040C06D271
:102F70000EEB840CBDE810404CF0010C6047DFE81C
:102F80000CF0070802024FF00040A0F5800010BDD1
:102F90000846420018BFD2F1807288BF00F000409E
:102FA00010BDFF2141EAD050C0057047020304055F
:102FB000060708090A0B0C0D0E0F10100102000085
:102FC00000000000000001020304060708090000D9
:102FD0000000010203040000F82F00080000002098
:102FE00030000000280100082830000830000020D0
:102FF0006807000044010008000000000500000010
:1030000000000000000000000000000000000000C0
:1030100000000000000000000000000010000000A0
:083020000100000000127A001B
:04000005080000ED02
:00000001FF
